:020000040800F2
:1000000000000824DD2700081D250008232500081E
:10001000292500082F2500083525000800000000CC
:100020000000000000000000000000003B25000868
:100030004925000800000000572500086525000834
:100040002D2800082D2800082D2800082D2800083C
:100050002D2800082D2800082D2800082D2800082C
:10006000712500082D2800082D280008812500088A
:100070002D2800082D2800082D2800082D2800080C
:100080002D2800082D2800082D2800089525000897
:100090002D2800082D2800082D2800082D280008EC
:1000A0002D2800082D2800082D2800082D280008DC
:1000B000A92500082D280008BD2500082D280008C6
:1000C0002D2800082D2800082D2800082D280008BC
:1000D0002D2800082D2800082D2800082D280008AC
:1000E0002D2800082D280008000000002D280008F9
:1000F0002D2800082D2800082D2800082D2800088C
:100100002D2800082D2800082D2800082D2800087B
:100110002D2800082D280008D12500082D280008CA
:100120002D2800082D2800082D2800082D2800085B
:100130002D2800082D2800082D2800082D2800084B
:1001400000000000000000000000000000000000AF
:100150002D2800082D2800082D2800082D2800082B
:100160002D2800082D2800082D2800082D2800081B
:100170002D280008ED2500082D28000800000000AB
:100180002D2800082D2800082D2800082D280008FB
:100190002D2800082D2800082D2800082D280008EB
:1001A00000000000000000002D2800082D28000895
:1001B0002D2800082D2800082D2800082D280008CB
:1001C0002D2800082D2800082D2800082D280008BB
:1001D0002D280008012600082D2800082D280008D9
:1001E0002D2800082D2800082D2800082D2800089B
:1001F0002D2800082D2800082D2800082D2800088B
:100200002D2800082D2800082D2800082D2800087A
:100210002D2800082D2800082D2800082D2800086A
:100220002D280008000000002D2800080000000014
:100230002D2800082D280008000000002D280008A7
:100240002D2800082D2800082D2800082D2800083A
:100250002D2800082D2800082D2800082D2800082A
:100260002D2800082D2800082D2800082D2800081A
:100270002D2800082D2800082D2800080000000067
:100280002D2800082D2800082D2800080000000057
:08029000000000002D28000809
:1002980010B5054C237833B9044B13B10448AFF3B8
:1002A80000800123237010BD900800240000000086
:1002B800D4E3010808B5034B1BB103490348AFF366
:1002C800008008BD0000000094080024D4E3010861
:1002D80081F0004102E000BF83F0004330B54FEAEF
:1002E80041044FEA430594EA050F08BF90EA020F5C
:1002F8001FBF54EA000C55EA020C7FEA645C7FEAEF
:10030800655C00F0E2804FEA5454D4EB5555B8BF11
:100318006D420CDD2C4480EA020281EA030382EA82
:10032800000083EA010180EA020281EA0303362D14
:1003380088BF30BD11F0004F4FEA01314FF4801CE7
:100348004CEA113102D0404261EB410113F0004FF9
:100358004FEA03334CEA133302D0524263EB4303B0
:1003680094EA050F00F0A780A4F10104D5F1200E4E
:100378000DDB02FA0EFC22FA05F2801841F10001A9
:1003880003FA0EF2801843FA05F359410EE0A5F17D
:1003980020050EF1200E012A03FA0EFC28BF4CF0AE
:1003A800020C43FA05F3C01851EBE37101F0004564
:1003B80007D54FF0000EDCF1000C7EEB00006EEB71
:1003C8000101B1F5801F1BD3B1F5001F0CD34908FB
:1003D8005FEA30004FEA3C0C04F101044FEA445252
:1003E80012F5800F80F09A80BCF1004F08BF5FEAD9
:1003F800500C50F1000041EB045141EA050130BDB9
:100408005FEA4C0C404141EB0101013C28BFB1F5CA
:10041800801FE9D291F0000F04BF01460020B1FA15
:1004280081F308BF2033A3F10B03B3F120020CDAE8
:100438000C3208DD02F1140CC2F10C0201FA0CF0C6
:1004480021FA02F10CE002F11402D8BFC2F1200C2B
:1004580001FA02F120FA0CFCDCBF41EA0C019040E1
:10046800E41AA2BF01EB0451294330BD6FEA04042A
:100478001F3C1CDA0C340EDC04F11404C4F1200215
:1004880020FA04F001FA02F340EA030021FA04F327
:1004980045EA030130BDC4F10C04C4F1200220FA7E
:1004A80002F001FA04F340EA0300294630BD21FABC
:1004B80004F0294630BD94F0000F83F4801306BF82
:1004C80081F480110134013D4EE77FEA645C18BF76
:1004D8007FEA655C29D094EA050F08BF90EA020F0D
:1004E80005D054EA000C04BF1946104630BD91EA05
:1004F800030F1EBF0021002030BD5FEA545C05D108
:100508004000494128BF41F0004130BD14F5800446
:100518003CBF01F5801130BD01F0004545F0FE41BA
:1005280041F470014FF0000030BD7FEA645C1ABFEF
:10053800194610467FEA655C1CBF0B46024650EA26
:10054800013406BF52EA033591EA030F41F4002152
:1005580030BD00BF90F0000F04BF0021704730B5D8
:100568004FF4806404F132044FF000054FF00001AD
:1005780050E700BF90F0000F04BF0021704730B56E
:100588004FF4806404F1320410F0004548BF404243
:100598004FF000013EE700BF42004FEAE2014FEA98
:1005A80031014FEA02701FBF12F07F4393F07F4F73
:1005B80081F06051704732F07F4208BF704793F076
:1005C8007F4F04BF41F40021704730B54FF4607489
:1005D80001F0004521F000411CE700BF50EA01028C
:1005E80008BF704730B54FF000050AE050EA010235
:1005F80008BF704730B511F0004502D5404261EBA5
:1006080041014FF4806404F132045FEA915C3FF4E5
:10061800D8AE4FF003025FEADC0C18BF03325FEA82
:10062800DC0C18BF033202EBDC02C2F1200300FA33
:1006380003FC20FA02F001FA03FE40EA0E0021FA58
:1006480002F11444BDE600BF80B483B000AF786007
:100658007B68002BB8BF5B4218460C37BD465DF877
:10066800047B704780B483B000AF87ED010AD7EDF3
:10067800017AF0EEE77AB0EE670A0C37BD465DF80E
:10068800047B704780B582B000AF78607B68033325
:100698003D22002118461DF075FD7B681846083775
:1006A800BD4680BDF0B5B1B004AF02F0BDF800F0B2
:1006B8007BFC00F009FD4FF47A7002F047F94F48CF
:1006C80010F074F84E494D4810F061F80B214B4872
:1006D80011F036FA494B93F9E631DBB2194647482F
:1006E80011F02EFA474B0093474B484A4449484873
:1006F80015F074FF01F0BCF901F09AF900F0ACFEB6
:100708001BF0ECFC00F0D2FF00F0F0FD00F0FCFC68
:1007180001F0F0F801F086F800F0FAFE01F024F894
:1007280000F030FE01F044F906223A493A4802F056
:10073800C5FC3A480CF02AFF39480CF08FFF3948BD
:100748000CF024FF38480CF089FF07F170031846B5
:10075800FFF798FF294B1B78012B03D1334B01225C
:100768001A7002E0314B00221A70254813F028FA5B
:100778002F4816F039FF2F4817F0AAF92E4814F021
:100788005AFA1E4B9B7F013B042B65D801A252F8F5
:1007980023F000BFB1070008C1070008D10700080F
:1007A80061080008EB070008204B1B781A4623490C
:1007B800164815F0B1FE50E01C4B1B781A4620492C
:1007C800114815F08EFD48E04FF4004301931D4B8E
:1007D80000934FF400631C4A1C490A4815F0E1FDD8
:1007E8003BE04FF47A7002F0B1F81949194814F057
:1007F80080FB184815F048FB2FE000BF180D0024B7
:100808005C100024BC0F0024B80F0024B40F00248F
:10081800940F002430150024AC0800245C0B00243D
:10082800A80B0024F40B0024400C00240000002432
:10083800D4130024381400247C140024C40A00248F
:100848008809002400000258000802583C0A0024C5
:100858009C090024CC0F002400BFC749C74816F0E4
:1008680049FA0021C64815F045FF02F063F803462F
:10087800C44A1360C04B93F8A930002B00F0508194
:10088800BF4815F02BFF034687F86830BA4BB3F81A
:1008980001309BB2A7F86930B94815F0F5FE034658
:1008A800A7F86B30412387F87030FF2387F8723040
:1008B800A12387F8713007F1730307F16802106804
:1008C800186012791A7107F170031946AE4817F0CB
:1008D8005DFCFE2387F87130AC4B03F5387407F1E3
:1008E800730C04F1300E654626460FCE2860696009
:1008F800AA60EB6010340CF1100C7445F3D107F1C9
:1009080070031946A04817F041FCA14B1B687B6493
:100918009F4BDB68BB649E4BDB6AFB649C4B1B6B89
:100928003B659B4B9B6B7B65994B5B6A7B66984BE6
:100938001B6A3B66964B5B69BB65954B9B69FB6580
:10094800412387F87030FF2387F87230A02387F897
:10095800713007F1440407F1730C04F1200E654669
:1009680026460FCE28606960AA60EB6010340CF14F
:10097800100C7445F3D1634622461068186007F1DD
:1009880070031946804817F001FC824B1B68BB6353
:10099800814B1B687B63814B1B68FB63804B1B6827
:1009A8003B64412387F87030AF2387F87130FF2309
:1009B80087F8723007F1730407F134050FCD206012
:1009C8006160A260E36007F1700319466E4817F092
:1009D800DDFBB02387F8713000233B716B4BD3F8F4
:1009E80020233B1D1946654816F0FDFC3C1D07F108
:1009F800730C04F1200E654626460FCE2860696008
:100A0800AA60EB6010340CF1100C7445F3D1654604
:100A1800234607CB28606960AA601B782B7307F10F
:100A280070031946584817F0B1FB01233B71574B27
:100A3800D3F814233B1D1946504816F0D4FC3C1D2E
:100A480007F1730C04F1200E654626460FCE286088
:100A58006960AA60EB6010340CF1100C7445F3D196
:100A68006546234607CB28606960AA601B782B730C
:100A780007F170031946444817F088FB02233B71BD
:100A8800424BD3F818233B1D19463C4816F0ABFCE3
:100A98003C1D07F1730C04F1200E654626460FCE67
:100AA80028606960AA60EB6010340CF1100C744582
:100AB800F3D16546234607CB28606960AA601B7896
:100AC8002B7307F1700319462F4817F05FFB0323B8
:100AD8003B712E4BD3F81C233B1D1946274816F0B3
:100AE80082FC3C1D07F1730C04F1200E6546264676
:100AF8000FCE28606960AA60EB6010340CF1100C0E
:100B08007445F3D16546234607CB28606960AA601F
:100B18001B782B7307F1700319461B4817F036FB37
:100B2800204B1B78002B00F099801F4814F0E0F848
:100B380003461E4A1360114816F0F6FB144B1B6857
:100B48001846FFF781FD0246114B1B699A42ACBF5C
:100B580001230023DBB2002B2CD00D4B1A690C4B60
:100B68001B68002B02DA4FF0FF3300E0012302FB81
:100B780003F30F4A136021E0180D00244C0F0024E2
:100B8800940F00245C150024DC0C0024B010002411
:100B98005C1000244C150024541500245015002422
:100BA80058150024251500247C1400244815002419
:100BB80028150024AF4B1B68AF4A1360AE4B18686A
:100BC800AC4B1B695942AB4B1A69AC4BD3F821406B
:100BD800AA4BD3F825300093234617F021FB034690
:100BE800A74A1360A74B1988A74B1A88A74B1888E0
:100BF800A74B1B8800930346A64816F05BFEA64B3E
:100C08001B88A64A12881946A54817F003F8A44B72
:100C18001B885B061A46A34B1B681343A14A136043
:100C2800A04B1968964B1A689A4B5B891846994BE2
:100C3800DB8B1C46974B5B8E1D46964BB3F84630B4
:100C480003930295019400900023974813F068FEDF
:100C5800954817F08BFA954B00221A70944B1B7825
:100C6800002B3FF407AE834812F0C8FF834B93F87C
:100C7800E531002B28D0814B93F8E131082B16D0B1
:100C8800082B00F36581002B02D0062B13D05FE1FF
:100C9800884815F0B3FE0346002B00F05B81774BC4
:100CA800002283F8E521754810F094FE52E1794856
:100CB80016F0B0FE4FE1784B1B88784A1288194627
:100CC800774817F0BFF946E16A497B4817F0DEFD1F
:100CD800034607EE903AF8EEE77A784BC3ED007AD0
:100CE800764BD3ED007AF5EE407AF1EE10FA14BFA8
:100CF80001230023DBB2002B31D0704BD3ED007AF7
:100D0800F5EEC07AF1EE10FA02D54FF0FF3400E0AC
:100D180001246A4BD3ED007AB0EE670AFFF7A2FC14
:100D2800F0EE407AFDEEE77A544BB3F85D309BB2B3
:100D38001A46524BB3F880300093134642F21072B1
:100D4800002117EE900A17F06BFA034603FB04F331
:100D580007EE903AF8EEE77A584BC3ED007A474B26
:100D680093F88230002B07D0544BD3ED007AF1EE84
:100D7800677A524BC3ED007A504B93ED007A504B93
:100D8800D3ED007A67EE277A4C4BC3ED007A394BE6
:100D98001B681846FFF758FC0246364B1B699A42F7
:100DA800CCBF01230023DBB2002B4BD0314B1B6897
:100DB8001846FFF749FC02462E4B1B69D31A07EE6B
:100DC800903AF8EEE76A2B4B5B6A07EE903AF8EE3A
:100DD800E77A86EEA77A294BB3F85B309BB207EE29
:100DE800903AF8EEE77A67EE277AB2EE047A67EE81
:100DF800877A344BC3ED007A324BD3ED007A9FEDFE
:100E0800321ADFED320AB0EE670A17F05CFAF0EE3C
:100E1800407A2C4BC3ED007A164B1B68002B02DA84
:100E2800BFEE007A01E0B7EE007A264BD3ED007AE8
:100E380027EE277A214BD3ED007A77EE277A1F4BDE
:100E4800C3ED007A0D4BB3F9A230002BB8BF5B425B
:100E58009BB242F20F72934249D9084BB3F85B3008
:100E68009BB21A46034B1B68002B31DA4FF0FF3355
:100E78002FE000BF5C10002428150024180D002462
:100E88002C15002440150024421500244415002484
:100E980046150024D41300243C1500243E150024D4
:100EA8003814002448150024DC0C002425150024DF
:100EB80024150024940F0024B01000245415002495
:100EC800501500244C15002400401C4600401CC648
:100ED800012302FB03F307EE903AB8EEE77A2A4BB8
:100EE800D3ED007A77EE277A274BC3ED007A264BAD
:100EF800D3ED007A9FED251ADFED250AB0EE670ADB
:100F080017F0E1F9F0EE407A1F4BC3ED007A214B60
:100F180093F88230002B0ED01B4BD3ED007AF1EE04
:100F2800677AFDEEE77A17EE903A1BB219461A482F
:100F380015F0E0FB0FE0144BD3ED007AFDEEE77AF5
:100F480017EE903A1BB21946134815F0D3FB02E08E
:100F580000BF00E000BF114B00221A7001F0EAFC4C
:100F680002460F4B1B68D31A42F20F72934294BF8A
:100F780001230023DBB2002B3FF47CAC094B1B6838
:100F88000133084A136075E45415002400401C46D8
:100F980000401CC6180D0024940F002424150024BA
:100FA8005C1500246015002480B59CB000AF07F1E3
:100FB80024034C22002118461DF0E4F83B1D202292
:100FC800002118461DF0DEF8022008F07BFD002302
:100FD8003B603B4B9B693A4A43F440439361384B2F
:100FE8009B6903F440433B60364BDB6A354A43F068
:100FF8000103D362334BDB6A03F001033B603B68B8
:101008002F4B9B6903F40053B3F5005F14BF012312
:101018000023DBB2002B00D0F2E723237B624FF4DE
:101028008033BB6201233B6340237B630123FB6363
:101038000223BB640223FB6405233B65C0237B6555
:101048000223BB650C23FB6502233B6608237B66F2
:101058000023BB660023FB6607F12403184608F04B
:101068007BFD0346002B14BF01230023DBB2002BBA
:1010780001D000F081FE3F237B600323BB60002387
:10108800FB6008233B6140237B614023BB614FF435
:101098008063FB6140233B623B1D0421184609F035
:1010A8006BF90346002B14BF01230023DBB2002B8E
:1010B80001D000F061FE00BF7037BD4680BD00BFA3
:1010C800004802580004005880B5B0B000AF3B1D7E
:1010D800BC22002118461DF055F84FF000437B60F4
:1010E80000237B653B1D184609F0A6FC0346002B30
:1010F80014BF01230023DBB2002B01D000F03CFE1B
:1011080000BFC037BD4680BD80B58AB000AF07F1CB
:101118001C0300221A605A609A603B4600221A603B
:101128005A609A60DA601A615A619A61674B684A34
:101138001A60664B00225A60644B00229A60634B27
:101148000122DA60614B08221A61604B00221A758D
:101158005E4B01225A755D4B06229A615B4B002259
:101168001A775A4B00225A62584B00229A62574B00
:101178000322DA62554B00221A63544B00225A6349
:10118800524B002283F83820504801F0F7FD0346FF
:10119800002B14BF01230023DBB2002B01D000F089
:1011A800EBFD0023FB6107F11C031946474802F0D9
:1011B800FBFD0346002B14BF01230023DBB2002BE9
:1011C80001D000F0D9FD434B3B6006237B60072329
:1011D800BB6040F2FF73FB6004233B6100237B612B
:1011E80000237B763B461946384802F03FF8034611
:1011F800002B14BF01230023DBB2002B01D000F029
:10120800BBFD354B3B600C237B603B4619462F48A2
:1012180002F02CF80346002B14BF01230023DBB295
:10122800002B01D000F0A8FD2C4B3B6012237B6003
:101238003B461946254802F019F80346002B14BF0F
:1012480001230023DBB2002B01D000F095FD244BD5
:101258003B6018237B603B4619461C4802F006F8A1
:101268000346002B14BF01230023DBB2002B01D05F
:1012780000F082FD1B4B3B604FF480737B603B4664
:101288001946124801F0F2FF0346002B14BF012350
:101298000023DBB2002B01D000F06EFD124B3B6047
:1012A8004FF483737B603B461946084801F0DEFF24
:1012B8000346002B14BF01230023DBB2002B01D00F
:1012C80000F05AFD00BF2837BD4680BDAC08002499
:1012D800002002400800900C1000C0102000F014FC
:1012E8008000501D000180210002B02580B58AB021
:1012F80000AF3B1D2422002118461CF043FF1F4B62
:101308001F4A1A601D4802F088FF0346002B14BFCD
:1013180001230023DBB2002B01D000F02DFD0023B8
:101328007B600023BB600023FB6001233B6100233B
:101338007B613B1D00221946104803F06BF80346F9
:10134800002B14BF01230023DBB2002B01D000F0D7
:1013580013FD3B1D10221946084803F05BF80346AD
:10136800002B14BF01230023DBB2002B01D000F0B7
:1013780003FD00BF2837BD4680BD00BF8809002493
:101388000074004080B500AF314B324A1A60304BD0
:101398004FF440729A602E4B0022DA602C4B0122E7
:1013A8001A742B4B01225A74294B00229A74284B29
:1013B80005225A61264B01229A61254B0D22DA61DA
:1013C800234B02221A62224B05225A62204B012229
:1013D8009A621F4B0D22DA621D4B02221A631C4BC4
:1013E80000225A631A4B01229A63194B0022DA63CE
:1013F800174B40221A64164B04225A64144B0022DD
:101408009A64134B0422DA64114B00221A65104BBC
:1014180004225A650E4B00229A650D4B0022DA65AC
:101428000B4B01221A660A4B00225A66084B04220B
:101438009A66074805F000FA0346002B14BF0123FB
:101448000023DBB2002B01D000F096FC00BF80BD6A
:101458009C09002400A0004080B500AF2A4B2B4A0D
:101468001A60294B4FF480025A60274B4FF4003220
:101478009A60254B0722DA60234B00221A61224B1F
:1014880000225A61204B4FF080629A611E4B4FF048
:101498008042DA611C4B00221A621B4B00225A62FE
:1014A800194B00229A62184B0022DA62164B4FF051
:1014B80080425A63144B00229A63134B0022DA636A
:1014C800114B00221A64104B00225A640E4B002262
:1014D8009A640D4B0022DA640B4B00221A650A4B02
:1014E80000225A65084B00229A6507480BF01AFC3F
:1014F8000346002B14BF01230023DBB2002B01D0CD
:1015080000F03AFC00BF80BD3C0A0024003C0040CB
:1015180080B598B000AF614B1B68614AB2F80120F2
:1015280092B211465E4AB2F81F2092B2013202FB13
:1015380001F2B3FBF2F3013BFB65594BB3F81F30E3
:101548009BB2BB6507F14C0300221A605A609A608F
:1015580007F1300300221A605A609A60DA601A6153
:101568005A619A613B1D2C22002118461CF00AFE84
:101578004C4B4D4A1A604B4AFB6D5360494B002255
:101588009A60484ABB6DD360464B00221A61454BAE
:1015980000225A61434B00229A6142480CF0CEF86F
:1015A8000346002B14BF01230023DBB2002B01D01C
:1015B80000F0E2FB0023FB6400233B6500237B650E
:1015C80007F14C03194637480DF0A8FB0346002BDA
:1015D80014BF01230023DBB2002B01D000F0CCFBA9
:1015E80060233B6300237B630023BB630023FB630F
:1015F80000233B6400237B640023BB6407F13003B2
:101608000022194627480CF031FD0346002B14BF71
:1016180001230023DBB2002B01D000F0ADFB07F162
:101628003003042219461F480CF020FD0346002B06
:1016380014BF01230023DBB2002B01D000F09CFB78
:1016480000237B600023BB600023FB6000233B6119
:1016580000237B614FF40053BB610023FB6100232F
:101668003B624FF000737B620023BB620023FB6286
:101678003B1D19460B480DF0D9FB0346002B14BF40
:1016880001230023DBB2002B01D000F075FB0548D5
:1016980000F004FF00BF6037BD4680BD0400002491
:1016A800180D0024C40A00240000014080B58CB045
:1016B80000AF07F10C032422002118461CF062FD3C
:1016C8003B4600221A605A609A60264B4FF08042CF
:1016D8001A60244B00225A60224B00229A60214B48
:1016E8004FF0FF32DA601F4B00221A611D4B0022B7
:1016F8009A610323FB6000233B6101237B61002384
:10170800BB610023FB6100233B6201237B62002352
:10171800BB620023FB6207F10C03194611480CF069
:101728006DF90346002B14BF01230023DBB2002B05
:1017380001D000F021FB00233B600023BB603B4647
:10174800194608480DF0EAFA0346002B14BF012396
:101758000023DBB2002B01D000F00EFB00BF3037B6
:10176800BD4680BD100B002480B588B000AF07F1DE
:10177800100300221A605A609A60DA603B1D00224A
:101788001A605A609A60254B254A1A60234BEF224B
:101798005A60224B00229A60204B4FF6FF72DA60A3
:1017A8001E4B00221A611D4B00229A611B480BF048
:1017B80096FE0346002B14BF01230023DBB2002B47
:1017C80001D000F0D9FA4FF480533B6107F11003C0
:1017D800194612480CF05AFD0346002B14BF01238A
:1017E8000023DBB2002B01D000F0C6FA00237B6097
:1017F8000023FB603B1D194608480DF08FFA03468D
:10180800002B14BF01230023DBB2002B01D000F012
:10181800B3FA00BF2037BD4680BD00BF5C0B002473
:101828000004004080B588B000AF2E4B9B8B1A4651
:101838002D4B93FBF2F3013BFB6107F10C030022F4
:101848001A605A609A60DA603B4600221A605A6051
:101858009A60264B264A1A60244BEF225A60234B83
:1018680000229A60214AFB69D360204B00221A614A
:101878001E4B00229A611D480BF031FE0346002BD7
:1018880014BF01230023DBB2002B01D000F074FA4F
:101898004FF48053FB6007F10C03194613480CF012
:1018A800F5FC0346002B14BF01230023DBB2002BF9
:1018B80001D000F061FA00233B600023BB603B4687
:1018C80019460A480DF02AFA0346002B14BF0123D3
:1018D8000023DBB2002B01D000F04EFA00BF203706
:1018E800BD4680BD180D002440420F00A80B0024FF
:1018F8000008004080B588B000AF07F1100300224F
:101908001A605A609A60DA603B1D00221A605A60B9
:101918009A60254B254A1A60234BEF225A60224BC6
:1019280000229A60204B4FF0FF32DA601E4B0022F3
:101938001A611D4B00229A611B480BF0D0FD03462B
:10194800002B14BF01230023DBB2002B01D000F0D1
:1019580013FA4FF480533B6107F1100319461248FC
:101968000CF094FC0346002B14BF01230023DBB2C8
:10197800002B01D000F000FA00237B600023FB60FD
:101988003B1D194608480DF0C9F90346002B14BF42
:1019980001230023DBB2002B01D000F0EDF900BFDA
:1019A8002037BD4680BD00BFF40B0024000C00406A
:1019B80080B584B000AF3B1D00221A605A609A605F
:1019C800194B1A4A1A60184BEF225A60164B00221C
:1019D8009A60154B40F2E732DA60134B00229A61A5
:1019E80011480BF07CFD0346002B14BF0123002394
:1019F800DBB2002B01D000F0BFF900237B6000238D
:101A0800FB603B1D194608480DF088F90346002B7A
:101A180014BF01230023DBB2002B01D000F0ACF986
:101A280000BF1037BD4680BD400C002400100040A8
:101A380080B582B000AF0D4BD3F8D8300B4A43F0D5
:101A48000103C2F8D830094BD3F8D83003F00103AA
:101A58007B607B68002200210B2002F098FB0B20A2
:101A680002F0AFFB00BF0837BD4680BD00440258F6
:101A780080B58CB000AF07F11C0300221A605A60D1
:101A88009A60DA601A61784BD3F8E030764A43F00E
:101A98001003C2F8E030744BD3F8E03003F01003C1
:101AA800BB61BB69704BD3F8E0306F4A43F08003E9
:101AB800C2F8E0306C4BD3F8E03003F080037B6170
:101AC8007B69694BD3F8E030674A43F00103C2F8F9
:101AD800E030654BD3F8E03003F001033B613B692C
:101AE800614BD3F8E030604A43F00403C2F8E030B9
:101AF8005D4BD3F8E03003F00403FB60FB685A4BFE
:101B0800D3F8E030584A43F00203C2F8E030564BAD
:101B1800D3F8E03003F00203BB60BB68524BD3F844
:101B2800E030514A43F00803C2F8E0304E4BD3F896
:101B3800E03003F008037B607B68002204214B48F7
:101B480006F0B2FD00228021494806F0ADFD0022D2
:101B58004FF45F71474806F0A7FD00224FF400419B
:101B6800454806F0A1FD00224FF40061434806F005
:101B78009BFD0723FB6100233B6200237B6207F187
:101B88001C0319463A4806F0C7FB0423FB613C4B8B
:101B98003B6200237B6207F11C031946364806F0B6
:101BA800BBFB0423FB6101233B6200237B62002310
:101BB800BB6207F11C0319462C4806F0ADFB8023D5
:101BC800FB6101233B6200237B620023BB6207F1B8
:101BD8001C031946264806F09FFB4FF45F73FB6110
:101BE80001233B6200237B620023BB6207F11C03D5
:101BF8001946204806F090FB4FF40043FB6101238F
:101C08003B6200237B620023BB6207F11C03194679
:101C1800194806F081FB4FF40063FB6101233B6226
:101C280000237B620023BB6207F11C03194613489B
:101C380006F072FB4FF44073FB6100233B62002304
:101C48007B6207F11C031946084806F065FB002271
:101C58000021082002F09BFA082002F0B2FA00BF27
:101C68003037BD4680BD00BF00440258000402580A
:101C780000100258000C02580000025800080258D0
:101C88000000211180B483B000AF78607B681A68C7
:101C98000A4B1B689A4202D1094B01221A707B68D1
:101CA8001A68084B1B689A4202D1074B01221A7026
:101CB80000BF0C37BD465DF8047B7047A80B0024B5
:101CC80024150024400C00242515002480B582B07A
:101CD80000AF0346FB80FB88042B02D1034812F0B7
:101CE80099F800BF0837BD4680BD00BF5C100024CE
:101CF80080B582B000AF786039603B6803F00103BB
:101D0800002B02D0034813F07FF900BF0837BD4607
:101D180080BD00BFCC0F002480B483B000AF7860D2
:101D28000E4B1A880E4B1A800C4BDA880D4B1A8012
:101D38000A4B5A880C4B1A80084B1A890B4B1A808D
:101D4800064B5A890A4B1A80044B9A88094B1A8009
:101D580000BF0C37BD465DF8047B70473015002482
:101D6800401500244215002444150024461500247B
:101D78003C1500243E15002480B400AF72B600BFA5
:101D8800FEE7000080B582B000AF786039607B68FC
:101D9800012B2BD13B684FF6FF72934226D12D4879
:101DA80016F0CAF92C480EF0B3FC2C4814F085FF45
:101DB8002B4814F0F7FB2B4814F098FB2A4814F032
:101DC8007AFA2A4814F0D7FA294813F05FF8294814
:101DD80011F076FE284816F099FC284815F0A4FB67
:101DE800274815F05DFE274812F0DCFE7B68002BC3
:101DF8002BD13B684FF6FF72934226D1214812F04F
:101E08000FFF1F4815F059FE1C4815F0E1FB1A4852
:101E180016F0D4FC174811F081FE154813F054F859
:101E2800124814F0B3FA104814F050FA0D4814F0A0
:101E380068FB0B4814F0C7FB084814F050FF06482D
:101E48000EF090FC034816F084F900BF0837BD4631
:101E580080BD00BFDC0C0024180D00244C0F0024AA
:101E6800940F0024B40F0024B80F0024BC0F0024E2
:101E7800CC0F00245C100024B0100024D4130024DC
:101E8800381400247C14002480B500AF4FF6FF718D
:101E98000120FFF777FF80BD80B500AF4FF6FF71D7
:101EA8000020FFF76FFF80BD80B483B000AF0A4BFE
:101EB800D3F8F430084A43F00203C2F8F430064B72
:101EC800D3F8F43003F002037B607B6800BF0C3763
:101ED800BD465DF8047B70470044025880B5BAB02F
:101EE80000AF786007F1D40300221A605A609A6044
:101EF800DA601A6107F11803BC22002118461CF0A9
:101F080041F97B681B68594A934240F0AA804FF414
:101F18000023BB614FF40033C7F8B83007F118034A
:101F2800184608F089FD0346002B01D0FFF724FF6F
:101F38004F4BD3F8D8304E4A43F02003C2F8D8307C
:101F48004B4BD3F8D83003F020037B617B69484BB7
:101F5800D3F8E030464A43F00103C2F8E030444B7E
:101F6800D3F8E03003F001033B613B69404BD3F801
:101F7800E0303F4A43F00403C2F8E0303C4BD3F86A
:101F8800E03003F00403FB60FB68394BD3F8E03022
:101F9800374A43F00203C2F8E030354BD3F8E0305B
:101FA80003F00203BB60BB68C023C7F8D430032327
:101FB800C7F8D8300023C7F8DC3007F1D403194636
:101FC8002C4806F0A9F93023C7F8D4300323C7F802
:101FD800D8300023C7F8DC3007F1D4031946264867
:101FE80006F09AF90323C7F8D4300323C7F8D8308A
:101FF8000023C7F8DC3007F1D40319461F4806F060
:102008008BF91F4B1F4A1A601D4B09225A601C4B43
:1020180000229A601A4B0022DA60194B4FF4806252
:102028001A61174B4FF400625A61154B4FF4005276
:102038009A61134B4FF48072DA61114B00221A62D5
:102048000F4B00225A620E4802F01EFB0346002B7B
:1020580001D0FFF791FE7B68094ADA64084A7B6879
:10206800936300BFE837BD4680BD00BF0020024033
:1020780000440258000002580008025800040258A0
:10208800100900241000024080B58AB000AF7860C3
:1020980007F1140300221A605A609A60DA601A6124
:1020A8007B681B681C4A934231D11C4BD3F8E8303B
:1020B8001A4A43F00053C2F8E830184BD3F8E83016
:1020C80003F000533B613B69144BD3F8E030134AEB
:1020D80043F00103C2F8E030104BD3F8E03003F0CE
:1020E8000103FB60FB6830237B610323BB61002392
:1020F800FB6107F114031946094806F00DF900229F
:102108000021362002F043F8362002F05AF800BFCA
:102118002837BD4680BD00BF007400400044025807
:102128000000025880B5B8B000AF786007F1CC0362
:1021380000221A605A609A60DA601A6107F1100387
:10214800BC22002118461CF01DF87B681B68294A30
:1021580093424AD14FF400433B614FF08053FB67F1
:1021680007F11003184608F067FC0346002B01D05E
:10217800FFF702FE204BD3F8EC301F4A43F480737C
:10218800C2F8EC301C4BD3F8EC3003F48073FB60DE
:10219800FB68194BD3F8E030174A43F00803C2F83C
:1021A800E030154BD3F8E03003F00803BB60BB68A0
:1021B8000323C7F8CC300223C7F8D0300023C7F870
:1021C800D4300023C7F8D8300923C7F8DC3007F12A
:1021D800CC031946094806F09FF800220021132075
:1021E80001F0D5FF132001F0ECFF00BFE037BD463A
:1021F80080BD00BF00A0004000440258000C0258F7
:1022080080B5B8B000AF786007F1CC0300221A603F
:102218005A609A60DA601A6107F11003BC22002143
:1022280018461BF0AFFF7B681B68254A934242D1D2
:102238004FF480533B610023FB6607F110031846F7
:1022480008F0FAFB0346002B01D0FFF795FD1D4B64
:10225800D3F8E8301B4A43F40043C2F8E830194B7E
:10226800D3F8E83003F40043FB60FB68154BD3F860
:10227800E030144A43F00403C2F8E030114BD3F8BD
:10228800E03003F00403BB60BB684FF4A053C7F809
:10229800CC300223C7F8D0300023C7F8D43000234D
:1022A800C7F8D8300623C7F8DC3007F1CC03194645
:1022B800054806F031F800BFE037BD4680BD00BFD5
:1022C800003C0040004402580008025880B485B021
:1022D80000AF78607B681B680B4A93420ED10B4BAA
:1022E800D3F8F030094A43F00103C2F8F030074B45
:1022F800D3F8F03003F00103FB60FB6800BF14372C
:10230800BD465DF8047B7047000001400044025858
:1023180080B58AB000AF786007F1140300221A6014
:102328005A609A60DA601A617B681B68B3F1804F63
:1023380035D11D4BD3F8E8301B4A43F00103C2F8EE
:10234800E830194BD3F8E83003F001033B613B69EF
:10235800154BD3F8E030144A43F00103C2F8E030DB
:10236800114BD3F8E03003F00103FB60FB68032353
:102378007B610223BB610023FB6103233B620123D2
:102388007B6207F114031946084805F0C5FF0022CF
:1023980000211C2001F0FBFE1C2001F012FF00BFF1
:1023A8002837BD4680BD00BF0044025800000258CF
:1023B80080B586B000AF78607B681B68324A93426C
:1023C8000FD1324BD3F8E830304A43F00203C2F859
:1023D800E8302E4BD3F8E83003F002037B617B69C9
:1023E8004DE07B681B682A4A934217D1274BD3F8E4
:1023F800E830264A43F00403C2F8E830234BD3F808
:10240800E83003F004033B613B69002200211E20F1
:1024180001F0BDFE1E2001F0D4FE30E07B681B6891
:102428001C4A93420FD1194BD3F8E830174A43F0AE
:102438000803C2F8E830154BD3F8E83003F0080376
:10244800FB60FB681BE07B681B68134A934216D14C
:102458000E4BD3F8E8300D4A43F01003C2F8E830C9
:102468000A4BD3F8E83003F01003BB60BB680022C6
:102478000021362001F08BFE362001F0A2FE00BFBD
:102488001837BD4680BD00BF000400400044025814
:1024980000080040000C00400010004080B588B0E3
:1024A80000AF786007F10C0300221A605A609A6046
:1024B800DA601A617B681B68134A93421FD1134B79
:1024C800D3F8E030114A43F01003C2F8E0300F4B64
:1024D800D3F8E03003F01003BB60BB684FF420630F
:1024E800FB6002233B6100237B610023BB61012366
:1024F800FB6107F10C031946054805F00DFF00BF05
:102508002037BD4680BD00BF00000140004402588E
:102518000010025880B400AFFEE780B400AFFEE7B9
:1025280080B400AFFEE780B400AFFEE780B400AF30
:10253800FEE780B400AF00BFBD465DF8047B70477E
:1025480080B400AF00BFBD465DF8047B704780B41F
:1025580000AF00BFBD465DF8047B704780B500AF93
:1025680000F0D4F900BF80BD80B500AF042006F0AC
:10257800B4F800BF80BD000080B500AF024802F08B
:1025880049FE00BF80BD00BF1009002480B500AF20
:10259800024804F0B5FE00BF80BD00BF9C090024BE
:1025A80080B500AF02480BF042FC00BF80BD00BF01
:1025B800100B002480B500AF02480BF038FC00BFB8
:1025C80080BD00BFA80B002480B500AF034801F010
:1025D80098FE03480BF02BFC00BF80BD880900243F
:1025E800400C002480B500AF024806F0E7F900BFB0
:1025F80080BD00BF942D002480B500AF024806F0CE
:10260800DDF900BF80BD00BF9C31002480B400AF5D
:1026180001231846BD465DF8047B704780B582B03B
:1026280000AF786039601BF065FD034616221A601A
:102638004FF0FF3318460837BD4680BD80B582B0DD
:1026480000AF78604FF0FF317868FFF7E7FFFEE7EB
:1026580080B586B000AF7860144A154BD31A7B61F9
:102668007B693B61134B1B68002B02D1114B124A4B
:102678001A60104B1A687B6813443A699A4207D269
:102688001BF038FD03460C221A604FF0FF3309E0B7
:10269800084B1B68FB60074B1A687B681344054AA4
:1026A8001360FB6818461837BD4680BD0000082433
:1026B8000004000064150024B835002480B400AF7D
:1026C800394BD3F88830384A43F47003C2F888305D
:1026D800364B1B6803F00F03062B07D8334B1B68D8
:1026E80023F00F03314A43F007031360304B1B6894
:1026F8002F4A43F0010313602D4B00221A612C4B23
:102708001A682B492B4B13400B60284B1B6803F0AE
:102718000803002B07D0254B1B6823F00F03234A1F
:1027280043F007031360224B00229A61204B0022DA
:10273800DA611F4B00221A621D4B1F4A9A621C4B1A
:102748001E4ADA621A4B1E4A1A63194B00225A6350
:10275800174B1B4A9A63164B0022DA63144B184A2C
:102768001A64134B00225A64114B1B68104A23F455
:10277800802313600E4B00221A66124B1A68124B04
:102788001340B3F1005F02D2104B01221A60104BC4
:1027980043F2D2021A60044B4FF000629A6000BF05
:1027A800BD465DF8047B704700ED00E00020005254
:1027B800004402587FEDF6EA000202020000FF0121
:1027C800800201010010005C0000FFFF0881005139
:1027D80000400052DFF834D0FFF770FF0C480D4975
:1027E8000D4A002302E0D458C4500433C4188C4264
:1027F800F9D30A4A0A4C002301E013600432A242CA
:10280800FBD31BF07DFCFDF74DFF7047000008244B
:10281800000000249008002478E8010890080024AB
:10282800B4350024FEE7000080B582B000AF032075
:1028380001F0A2FC07F056FF0246154B9B691B0AE4
:1028480003F00F031349CB5C03F01F0322FA03F3D1
:102858007B600F4B9B6903F00F030E4AD35C03F0B8
:102868001F037A6822FA03F30B4A13600B4A7B684A
:102878001360002000F014F80346002B01D0012358
:1028880002E0FFF711FB002318460837BD4680BD5C
:102898000044025804E5010808000024040000244C
:1028A80080B582B000AF7860154B1B78002B01D142
:1028B800012321E0134B1A68114B1B7819464FF47A
:1028C8007A73B3FBF1F3B2FBF3F3184601F099FC0A
:1028D8000346002B01D001230EE07B680F2B0AD89A
:1028E800002279684FF0FF3001F051FC064A7B68FE
:1028F8001360002300E0012318460837BD4680BD59
:1029080010000024040000240C00002480B400AF50
:10291800064B1B781A46064B1B681344044A13607F
:1029280000BFBD465DF8047B704700BF100000245F
:10293800D015002480B400AF034B1B681846BD4671
:102948005DF8047B704700BFD015002480B584B0C3
:1029580000AF7860FFF7EEFFB8607B68FB60FB684C
:10296800B3F1FF3F05D00A4B1B781A46FB681344A6
:10297800FB6000BFFFF7DEFF0246BB68D31AFA68A8
:102988009A42F7D800BF00BF1037BD4680BD00BFD0
:102998001000002480B400AF034B1B681B0C1846C2
:1029A800BD465DF8047B70470010005C80B483B0BE
:1029B80000AF786039607B689B6823F47C123B68C1
:1029C8001A437B689A6000BF0C37BD465DF8047BEC
:1029D800704780B483B000AF786039607B689B68CB
:1029E80023F0E0723B681A437B689A6000BF0C379B
:1029F800BD465DF8047B704780B483B000AF786053
:102A08007B689B6803F0E07318460C37BD465DF899
:102A1800047B704780B487B000AFF860B9607A6013
:102A28003B60FB6860331A46BB689B0013447B61BC
:102A38007B691B6803F000427B6803F0F8413B6840
:102A48000B431A437B691A6000BF1C37BD465DF80B
:102A5800047B704780B485B000AFF860B9607A60D5
:102A6800FB681B6923F4F042BB6803F01F03796815
:102A780001FA03F31A43FB681A6100BF1437BD4615
:102A88005DF8047B704780B487B000AFF860B96028
:102A98007A60FB6860331A46BB689B0013447B610D
:102AA8007B691B6823F000427B681A437B691A60C4
:102AB80000BF1C37BD465DF8047B704780B483B007
:102AC80000AF78607B68DB6803F44063002B01D1BA
:102AD800012300E0002318460C37BD465DF8047B4F
:102AE800704780B487B000AFF860B9607A60FB685F
:102AF80030331A46BB681B0A9B0003F00C031344CF
:102B08007B617B691A68BB6803F01F031F2101FA08
:102B180003F3DB431A407B689B0E03F01F01BB687D
:102B280003F01F0301FA03F31A437B691A6000BF1D
:102B38001C37BD465DF8047B704780B483B000AF96
:102B4800786039607B68DB6823F003023B681A43CE
:102B58007B68DA6000BF0C37BD465DF8047B7047C0
:102B680080B487B000AFF860B9607A60FB6814334E
:102B78001A46BB685B0E9B0003F0040313447B6199
:102B88007B691A68BB681B0D03F01F03072101FA54
:102B980003F3DB431A40BB681B0D03F01F0379687E
:102BA80001FA03F31A437B691A6000BF1C37BD465C
:102BB8005DF8047B7047000080B485B000AFF86012
:102BC800B9607A60FB68D3F8C020BB68C3F313030D
:102BD800DB431A407B6803F018030849D940BB68F7
:102BE8000B40C3F313031A43FB68C3F8C02000BFAC
:102BF8001437BD465DF8047B704700BFFFFF0F0028
:102C080080B483B000AF78607B689B6803F01F03D3
:102C180018460C37BD465DF8047B704780B483B016
:102C280000AF78607B689A68044B13407A689360B9
:102C380000BF0C37BD465DF8047B7047C0FFFF5FDF
:102C480080B483B000AF78607B689B6803F0005362
:102C5800B3F1005F01D1012300E0002318460C37CF
:102C6800BD465DF8047B704780B483B000AF7860E0
:102C78007B689A68054B134043F080527B689A60E2
:102C880000BF0C37BD465DF8047B7047C0FFFF6F7F
:102C980080B483B000AF78607B689B6803F0805392
:102CA800B3F1805F01D1012300E0002318460C37FF
:102CB800BD465DF8047B704780B483B000AF786090
:102CC8007B689A68054B134043F001027B689A6061
:102CD80000BF0C37BD465DF8047B7047C0FFFF7F1F
:102CE80080B483B000AF78607B689B6803F0010311
:102CF800012B01D1012300E0002318460C37BD4603
:102D08005DF8047B7047000080B483B000AF786042
:102D18007B689A68054B134043F004027B689A600D
:102D280000BF0C37BD465DF8047B7047C0FFFF7FCE
:102D380080B483B000AF78607B689B6803F00403BD
:102D4800042B01D1012300E0002318460C37BD46AF
:102D58005DF8047B704780B483B000AF78607B680F
:102D68009B6803F00803082B01D1012300E000232E
:102D780018460C37BD465DF8047B704790B589B09E
:102D880000AF78600023FB770023BB607B68002BD3
:102D980001D101238EE17B68DB68002B7B685B6DCA
:102DA800002B09D17868FFF799F87B6800229A65AB
:102DB8007B68002283F850207B681B681846FFF761
:102DC8003FFF0346002B04D07B681B681846FFF7BB
:102DD80025FF7B681B681846FFF75AFF0346002B40
:102DE80014D17B681B681846FFF73EFF9A4B1B6897
:102DF8009B099A4AA2FB03239B090133BB6002E0AB
:102E0800BB68013BBB60BB68002BF9D17B681B68C2
:102E18001846FFF73DFF0346002B0DD17B685B6D1D
:102E280043F010027B685A657B689B6D43F0010292
:102E38007B689A650123FB777B681B681846FFF758
:102E480077FF78617B685B6D03F01003002B40F01F
:102E580028817B69002B40F024817B685B6D23F41B
:102E6800817343F002027B685A657B681B681846C9
:102E7800FFF736FF0346002B36D17B681B68784A7C
:102E8800934204D07B681B68764A93420ED17448FB
:102E9800FFF726FF04467348FFF722FF0346234344
:102EA800002B0CBF01230023DBB208E06E48FFF7BC
:102EB80017FF0346002B0CBF01230023DBB2002BB6
:102EC80012D07B681B68664A934204D07B681B68F3
:102ED800644A934201D1654A00E0654A7B685B68B1
:102EE80019461046FFF762FDFFF754FD034641F20D
:102EF8000302934214D97B689B68102B10D17B681E
:102F08005B7D5A037B681B6B1A437B689B681A437B
:102F18007B681B7F1B04134343F00C03BB610DE06C
:102F28007B685B7D5A037B681B6B1A437B689B68D5
:102F38001A437B681B7F1B041343BB617B681B7FA1
:102F4800012B06D17B681B6A013B5B04BA691343FA
:102F5800BB617B685B6A002B09D07B685B6A03F402
:102F680078727B689B6A1343BA691343BB617B68B9
:102F78001B68DA683F4B13407A681268B9690B43DB
:102F8800D3607B681B681846FFF7D2FE38617B6800
:102F98001B681846FFF7DFFEF8603B69002B4AD133
:102FA800FB68002B47D17B681B7D9A037B68DB6A33
:102FB8001343BB617B681B68DA682F4B13407A6840
:102FC8001268B9690B43D3607B6893F83830012BDA
:102FD8001BD17B685B6A002B7B681B681A69274BCF
:102FE80013407A68D26B013A11047A68126C114363
:102FF8007A68526C11437A68926C0A431A437B6868
:103008001B6842F001021A6107E07B681B681A69B5
:103018007B681B6822F001021A617B681B681B69C8
:1030280023F070417B685A6B7B681B680A431A61FE
:10303800786800F089FD7B68DB68012B20D17B680C
:103048001B681B6B23F00F017B689B695A1E7B680A
:103058001B680A431A631BE004000024632D3E0525
:103068000020024000210240006002580023024074
:103078000063025803C0F0FFFCBFFFFF1EF800FC0E
:103088007B681B681A6B7B681B6822F00F021A6347
:103098007B685B6D23F0030343F001027B685A658C
:1030A80007E07B685B6D43F010027B685A6501237B
:1030B800FB77FB7F18462437BD4690BD80B586B0A8
:1030C80000AFF860B9607A60FB681B68554A9342A4
:1030D80004D0FB681B68544A934201D1534B00E06B
:1030E800534B1846FFF78CFD3861FB681B68184680
:1030F800FFF71EFE0346002B40F08C80FB6893F818
:103108005030012B01D1022387E0FB68012283F8AC
:1031180050203B69002B05D03B69052B02D03B6949
:10312800092B70D1F86800F0F1FB0346FB75FB7DB5
:10313800002B63D1FB685A6D3E4B134043F48072F9
:10314800FB685A65FB681B68374A934202D0FB68E4
:103158001B6800E0334BFA681268934202D03B695F
:10316800002B05D1FB685B6D23F48012FB685A6560
:10317800FB685B6D03F48053002B06D0FB689B6DE6
:1031880023F00602FB689A6502E0FB6800229A6554
:10319800FB68DB6C284ADA63FB68DB6C274A1A6435
:1031A800FB68DB6C264ADA64FB681B681C221A6021
:1031B800FB68002283F85020FB681B685A68FB688C
:1031C8001B6842F010025A60FB681A68FB68DB6AE9
:1031D80019461046FFF7B1FCFB68D86CFB681B6802
:1031E80040331946BA687B6801F0AAFD0346FB75AF
:1031F800FB681B681846FFF787FD0DE0FB68002297
:1032080083F8502008E00123FB75FB68002283F84F
:10321800502001E00223FB75FB7D18461837BD4698
:1032280080BD00BF00200240002102400023024070
:1032380000630258FEF0FFFF293A0008013B00082E
:103248001D3B000880B483B000AF786000BF0C3726
:10325800BD465DF8047B704780B483B000AF7860EA
:1032680000BF0C37BD465DF8047B704790B5A1B030
:1032780000AF78603960002387F87F300023BB6097
:103288003B68DB689D4A93427B6893F85030012B7A
:1032980001D1022321E37B68012283F850207B6857
:1032A8001B681846FFF744FD0346002B40F00683D1
:1032B8003B681B68C3F31303002B08D13B681B68EA
:1032C8009B0E03F01F03012202FA03F316E03B688A
:1032D8001B687B667B6E93FAA3F33B663B6EBB660B
:1032E800BB6E002B01D1202303E0BB6EB3FA83F33E
:1032F800DBB203F01F03012202FA03F37A681268B3
:10330800D1697A6812680B43D3617B6818683B6897
:1033180059683B681B681A46FFF7E3FB7B681B6824
:103328001846FFF705FDB8677B681B681846FFF766
:1033380012FD7867BB6F002B40F0B3807B6F002BCA
:1033480040F0AF807B6818683B6819683B689B68E9
:103358001A46FFF705FC6A4B1B6803F07043B3F18C
:10336800805F0BD13B685A697B681B68DB689B08E8
:1033780003F007035B0002FA03F31DE07B681B6898
:10338800DB6803F01003002B0BD13B685A697B689C
:103398001B68DB689B0803F007035B0002FA03F372
:1033A8000AE03B685A697B681B68DB689B0803F086
:1033B80004035B0002FA03F33B673B681B69042BB9
:1033C80027D07B6818683B6819693B681A683B6FA7
:1033D800FFF720FB7B6818683B6819693B685B7ED0
:1033E800012B02D14FF0004300E000231A46FFF7FB
:1033F8004AFB7B6818683B6819693B681B7E012B90
:1034080002D14FF4006300E000231A46FFF722FBC5
:1034180047E07B681B681B6E03F0F8423B681B683B
:103428009B069A4207D17B681B681A6E7B681B68EB
:1034380022F000421A667B681B685B6E03F0F84254
:103448003B681B689B069A4207D17B681B685A6ECB
:103458007B681B6822F000425A667B681B689B6E7B
:1034680003F0F8423B681B689B069A4207D17B68C9
:103478001B689A6E7B681B6822F000429A667B681C
:103488001B68DB6E03F0F8423B681B689B069A4298
:1034980007D17B681B68DA6E7B681B6822F00042E4
:1034A800DA667B681B681846FFF71AFC0346002B90
:1034B80040F00D827B6818683B6819683B68DB68D8
:1034C8001A46FFF779FB3B68DB680C4A934240F0E9
:1034D80033817B6818683B681B68C3F31303002BB0
:1034E80010D13B681B689B0E013303F01F03092BA7
:1034F80094BF01230023DBB21EE000BF0000FF479A
:103508000010005C3B681B68BB65BB6D93FAA3F3B6
:103518007B657B6DFB65FB6D002B01D1202303E0F0
:10352800FB6DB3FA83F3DBB2013303F01F03092BFE
:1035380094BF01230023DBB2002B79D03B681B68C2
:10354800C3F31303002B07D13B681B689B0E0133A1
:103558009B0603F0F84215E03B681B68FB64FB6CB4
:1035680093FAA3F3BB64BB6C3B653B6D002B01D1A5
:10357800202303E03B6DB3FA83F3DBB201339B06F0
:1035880003F0F8423B681B68C3F31303002B09D10F
:103598003B681B689B0E013303F01F03012101FAEE
:1035A80003F317E03B681B683B643B6C93FAA3F397
:1035B800FB63FB6B7B647B6C002B01D1202303E056
:1035C8007B6CB3FA83F3DBB2013303F01F030121F1
:1035D80001FA03F342EA03013B681B68C3F31303D0
:1035E800002B0AD13B681B689B0E013303F01F02B6
:1035F80013465B0013441B0518E03B681B687B639C
:103608007B6B93FAA3F33B633B6BBB63BB6B002BF6
:1036180001D1202303E0BB6BB3FA83F3DBB20133A0
:1036280003F01F0213465B0013441B050B437EE0A7
:103638003B681B68C3F31303002B07D13B681B6867
:103648009B0E01339B0603F0F84215E03B681B68AC
:10365800BB62BB6A93FAA3F37B627B6AFB62FB6A79
:10366800002B01D1202303E0FB6AB3FA83F3DBB21A
:1036780001339B0603F0F8423B681B68C3F313034E
:10368800002B09D13B681B689B0E013303F01F0315
:10369800012101FA03F317E03B681B68FB61FB6932
:1036A80093FAA3F3BB61BB693B623B6A002B01D170
:1036B800202303E03B6AB3FA83F3DBB2013303F060
:1036C8001F03012101FA03F342EA03013B681B6867
:1036D800C3F31303002B0DD13B681B689B0E01330A
:1036E80003F01F0213465B0013441E3B1B0543F007
:1036F80000731BE03B681B683B613B6993FAA3F3CB
:10370800FB60FB687B617B69002B01D1202303E010
:103718007B69B3FA83F3DBB2013303F01F0213466C
:103728005B0013441E3B1B0543F000730B433A68D0
:1037380092681946FFF714FA3B681B68002B80F261
:10374800C6807B681B68674A934204D07B681B6805
:10375800654A934201D1654B00E0654B1846FFF777
:103768004BF9F8667B681B685E4A934204D07B6815
:103778001B685D4A93420ED15A48FFF7B1FA0446D6
:103788005948FFF7ADFA03462343002B0CBF01232A
:103798000023DBB208E05748FFF7A2FA0346002BE4
:1037A8000CBF01230023DBB2002B7DD03B681B68D4
:1037B800514A934230D1FB6E03F40003002B2BD106
:1037C8007B681B684B4A934240F081807B681B688A
:1037D800444A934204D07B681B68434A934201D110
:1037E800424A00E0424AFB6E43F400031946104681
:1037F800FFF7EFF8414B1B689B09414AA2FB0323E3
:103808009B0901335B00BB6002E0BB68013BBB6006
:10381800BB68002BF9D15AE03B681B68394A9342D0
:103828001ED1FB6E03F08073002B19D17B681B68D7
:10383800304A93424BD17B681B682A4A934204D092
:103848007B681B68284A934201D1284A00E0284A2D
:10385800FB6E43F0807319461046FFF7BAF836E05E
:103868003B681B68284A934231D1FB6E03F48003FE
:10387800002B2CD17B681B681E4A934227D17B689A
:103888001B68184A934204D07B681B68164A934207
:1038980001D1164A00E0164AFB6E43F4800319462C
:1038A8001046FFF796F812E07B685B6D43F0200244
:1038B8007B685A65012387F87F3008E07B685B6D79
:1038C80043F020027B685A65012387F87F307B68C4
:1038D800002283F8502097F87F3018468437BD4679
:1038E80090BD00BF0020024000210240002302409A
:1038F8000063025800600258000084CB04000024D2
:10390800632D3E05000052C70000B8CF80B584B0D3
:1039180000AF78607B681B681846FFF7E1F903463B
:10392800002B6ED17B681B689A68384B1340002BBC
:103938000DD07B685B6D43F010027B685A657B682D
:103948009B6D43F001027B689A6501235AE07B680E
:103958001B681846FFF7B0F9FEF7ECFFF8607B68C4
:103968001B682B4A934204D07B681B68294A934200
:1039780001D1294B00E0294B1846FFF741F9B860FF
:103988007B681B68234A934202D07B681B6800E06F
:103998001F4B7A68126893422CD0BB68002B30D139
:1039A80028E07B681B681846FFF79AF90346002B46
:1039B80004D17B681B681846FFF77EF9FEF7BAFF4B
:1039C8000246FB68D31A022B14D97B681B681B6854
:1039D80003F00103012B0DD07B685B6D43F01002EF
:1039E8007B685A657B689B6D43F001027B689A652A
:1039F800012307E07B681B681B6803F00103012BA8
:103A0800CFD1002318461037BD4680BD3F00008047
:103A180000200240002102400023024000630258B7
:103A280080B584B000AF78607B689B6BFB60FB68F7
:103A38005B6D03F05003002B4BD1FB685B6D43F4C7
:103A48000072FB685A65FB681B681B6803F0080373
:103A5800002B21D0FB681B681846FFF72FF8034698
:103A6800002B32D0FB681B68DB6803F40053002B83
:103A78002BD1FB685B6D23F48072FB685A65FB6889
:103A88005B6D03F48053002B1FD1FB685B6D43F023
:103A98000102FB685A6518E0FB681B68DB6803F0E5
:103AA8000303002B11D1FB685B6D23F48072FB6864
:103AB8005A65FB685B6D03F48053002B05D1FB68E6
:103AC8005B6D43F00102FB685A65F868FEF724F95C
:103AD8000EE0FB685B6D03F01003002B03D0F86861
:103AE800FFF7BAFB04E0FB68DB6CDB6C786898478F
:103AF80000BF1037BD4680BD80B584B000AF786088
:103B08007B689B6BFB60F868FFF79CFB00BF103776
:103B1800BD4680BD80B584B000AF78607B689B6B84
:103B2800FB60FB685B6D43F04002FB685A65FB680D
:103B38009B6D43F00402FB689A65F868FFF78CFBFD
:103B480000BF1037BD4680BD80B584B000AF786037
:103B58007B681B68794A934204D07B681B68784A63
:103B6800934209D1774B9B6803F44033002B14BF71
:103B780001230023DBB208E0734B9B6803F4403356
:103B8800002B14BF01230023DBB2002B1CD006F04E
:103B980023FFF8607B685B68B3F5403F10D0B3F54E
:103BA800403F71D8B3F5803F02D0B3F5003F6BD1E9
:103BB8007B685B681B0CFA68B2FBF3F3FB6066E09A
:103BC800FB689B08FB6062E04FF4002007F064FE8E
:103BD800F8607B685B68B3F5301F51D0B3F5301FD0
:103BE80054D8B3F5201F47D0B3F5201F4ED8B3F5EE
:103BF800101F3DD0B3F5101F48D8B3F5001F33D0C0
:103C0800B3F5001F42D8B3F5E01F29D0B3F5E01F84
:103C18003CD8B3F5C01F1AD0B3F5C01F36D8B3F5DA
:103C2800A01F14D0B3F5A01F30D8B3F5801F0ED055
:103C3800B3F5801F2AD8B3F5402F08D0B3F5402F2D
:103C480024D8B3F5802F02D0B3F5002F1ED17B689E
:103C58005B689B0C5B00FA68B2FBF3F3FB6016E051
:103C6800FB681B09FB6012E0FB685B09FB600EE068
:103C7800FB689B09FB600AE0FB68DB09FB6006E068
:103C8800FB681B0AFB6002E000BF00E000BFFEF714
:103C980081FE034641F20302934215D8FB682B4A82
:103CA800934208D97B681B689A687B681B6842F452
:103CB80080729A603EE07B681B689A687B681B6824
:103CC80022F480729A6035E0FB685B08FB60FB6851
:103CD8001F4A934208D87B681B689A687B681B68F0
:103CE80022F440729A6025E0FB681A4A93420AD887
:103CF8007B681B689B6823F440727B681B6842F4EE
:103D080080729A6016E0FB68134A93420AD87B686F
:103D18001B689B6823F440727B681B6842F400723E
:103D28009A6007E07B681B689A687B681B6842F4A6
:103D380040729A6000BF1037BD4680BD0020024027
:103D4800002102400023024000630258002D310187
:103D5800105E5F0020BCBE0040787D0180B483B057
:103D680000AF78607B689B6803F00103012B01D1E9
:103D7800012300E0002318460C37BD465DF8047B9C
:103D8800704780B483B000AF78607B689B6803F0AD
:103D98000403042B01D1012300E0002318460C374B
:103DA800BD465DF8047B704790B59FB000AF786062
:103DB8003960002387F877307B6893F85030012BFF
:103DC80001D10223BEE07B68012283F85020002342
:103DD800FB6500233B667B681B685C4A934202D103
:103DE8005B4BBB6001E00023BB60BB68002B0BD1C1
:103DF8007B685B6D43F020027B685A657B68002214
:103E080083F8502001239DE0BB681846FFF7B9FFEF
:103E180038677B681B681846FFF7B3FF0346002B1B
:103E28007FD13B6F002B7CD17B681B68474A93424C
:103E380004D07B681B68464A934201D1454B00E099
:103E4800454BFB663B681B68002B39D0FB6E9B68B3
:103E580023F440423B685B681A43FB6E9A607B68B8
:103E68001B683A4A934204D07B681B68384A9342DD
:103E78000ED13648FFF772FF04463548FFF76EFF4C
:103E880003462343002B0CBF01230023DBB208E0C9
:103E98003248FFF763FF0346002B0CBF01230023C2
:103EA800DBB2002B47D0FB6E9A682D4B13403A6863
:103EB80011683A6892680A431A43FB6E9A603AE0BE
:103EC800FB6E9B6823F44042FB6E9A607B681B681C
:103ED8001E4A934204D07B681B681D4A93420ED148
:103EE8001A48FFF73BFF04461948FFF737FF034618
:103EF8002343002B0CBF01230023DBB208E0174843
:103F0800FFF72CFF0346002B0CBF01230023DBB275
:103F1800002B10D0FB6E9A68114B1340FA6E936019
:103F280009E07B685B6D43F020027B685A650123DA
:103F380087F8773000E000BF7B68002283F85020C4
:103F480097F8773018467C37BD4690BD0020024070
:103F5800002102400023024000630258006002581A
:103F6800E0F0FFFF80B485B000AF78607B6803F0B5
:103F78000703FB600B4BDB68BB60BA684FF6FF03B7
:103F88001340BB60FB681A02BB681A43064B134315
:103F9800BB60044ABB68D36000BF1437BD465DF8F8
:103FA800047B704700ED00E00000FA0580B400AF24
:103FB800044BDB681B0A03F007031846BD465DF88F
:103FC800047B704700ED00E080B483B000AF034687
:103FD800FB80B7F90630002B0BDBFB8803F01F02D0
:103FE8000749B7F906305B09012000FA02F241F8E7
:103FF800232000BF0C37BD465DF8047B704700BF27
:1040080000E100E080B483B000AF0346FB80B7F95D
:104018000630002B12DBFB8803F01F020A49B7F9B0
:1040280006305B09012000FA02F2203341F8232010
:10403800BFF34F8F00BFBFF36F8F00BF00BF0C37B8
:10404800BD465DF8047B704700E100E080B483B0B2
:1040580000AF03463960FB80B7F90630002B0ADB56
:104068003B68DAB20C49B7F906301201D2B20B44F8
:1040780083F800230AE03B68DAB20849FB8803F0BA
:104088000F03043B1201D2B20B441A7600BF0C375F
:10409800BD465DF8047B704700E100E000ED00E0FC
:1040A80080B489B000AFF860B9607A60FB6803F04B
:1040B8000703FB61FB69C3F10703042B28BF042333
:1040C800BB61FB690433062B02D9FB69033B00E0A3
:1040D80000237B614FF0FF32BB6902FA03F3DA4336
:1040E800BB681A407B699A404FF0FF317B6901FA3F
:1040F80003F3D9437B680B40134318462437BD4666
:104108005DF8047B7047000080B400AFBFF34F8FA9
:1041180000BF064BDB6803F4E0620449044B134319
:10412800CB60BFF34F8F00BF00BFFDE700ED00E09D
:104138000400FA0580B582B000AF78607B68013B67
:10414800B3F1807F01D301230FE00A4A7B68013B6A
:1041580053600F214FF0FF30FFF778FF054B002227
:104168009A60044B07221A60002318460837BD4698
:1041780080BD00BF10E000E080B582B000AF78607D
:104188007868FFF7EFFE00BF0837BD4680BD80B5F1
:1041980086B000AF0346B9607A60FB81FFF706FF7F
:1041A80078617A68B9687869FFF77AFF0246B7F9E3
:1041B8000E3011461846FFF749FF00BF1837BD46B5
:1041C80080BD80B582B000AF0346FB80B7F90630EA
:1041D8001846FFF7F9FE00BF0837BD4680BD80B519
:1041E80082B000AF0346FB80B7F906301846FFF7E8
:1041F80009FF00BF0837BD4680BD80B500AFFFF797
:1042080083FF80B582B000AF78607868FFF792FFCF
:10421800034618460837BD4680BD80B582B000AF5A
:1042280078607B68002B01D1012314E07B681B793F
:10423800DBB2002B05D17B6800225A717868FDF744
:1042480023FF7B6802221A717B6800221A617B684F
:1042580001221A71002318460837BD4680BD80B474
:1042680083B000AF786039607B685B79012B01D13E
:10427800022340E07B6801225A717B6802221A718E
:104288007B681B6819683B6803F0100301229A4099
:104298007B681B680A431A603B68002B0FD17B6858
:1042A8001B681B6803F03E03022B1DD17B681B684B
:1042B8005A687B681B6842F001025A6014E07B6808
:1042C8001B681B6803F478123B6803F01003022193
:1042D80001FA03F39A4207D17B681B685A687B6826
:1042E8001B6842F002025A607B6801221A717B68DF
:1042F80000225A71002318460C37BD465DF8047B2E
:10430800704780B582B000AF78607B681B681B6817
:1043180003F40053B3F5005F20D17B681B685B6B27
:1043280003F40053B3F5005F18D17B6804221A71B7
:104338007B681B6943F001027B681A617B681B6814
:104348004FF400525A637B681B681A687B681B68C5
:1043580022F480521A60786800F052F87B681B6873
:104368001B6803F00053B3F1005F20D17B681B6822
:104378005B6B03F00053B3F1005F18D17B68042234
:104388001A717B681B6943F002027B681A617B68BB
:104398001B684FF000525A637B681B681A687B6879
:1043A8001B6822F080521A60786800F063F900BF39
:1043B8000837BD4680BD80B487B000AFF860B960EB
:1043C8007A603B6000237B61FB681B687B61BB688C
:1043D800002B05D17A697B68134408337B6104E0BC
:1043E8007A697B68134414337B617B691A463B689E
:1043F8001360002318461C37BD465DF8047B7047E0
:1044080080B483B000AF786000BF0C37BD465DF85C
:10441800047B704780B588B000AFF860B9607A60F7
:10442800FB685B79012B01D102231DE1FB680122A6
:104438005A71FB6802221A71BB681B68042B74D17D
:10444800FEF778FAB8617B68002B34D111E0FEF7EB
:1044580071FA0246BB69D31A012B0AD9FB681B699A
:1044680043F00802FB681A61FB6803221A710323F0
:10447800FAE0FB681B685A6B7D4B1340002BE6D1B2
:104488000120FEF763FAFB681B68BA6892691A6430
:104498001EE0FEF74FFA0246BB69D31A012B0AD970
:1044A800FB681B6943F00802FB681A61FB6803227A
:1044B8001A710323D8E0FB681B685B6B002BE8DBF1
:1044C8000120FEF743FAFB681B68BA6892695A64D0
:1044D800FB681B689A6C7B6803F0100340F2FF319D
:1044E80001FA03F3DB4302EA0301BB68DA697B687C
:1044F80003F010039A40FB681B680A439A64FB6840
:104508001B68DA6C7B6803F01003FF2101FA03F3E0
:10451800DB4302EA0301BB681A6A7B6803F01003F5
:104528009A40FB681B680A43DA64BB681B69012B65
:104538001DD1FB681B689B6B7B617B6803F01003D4
:104548001F2202FA03F3DB437A6913407B61BB68DD
:104558005B693B617B6803F010033A6902FA03F375
:104568007A6913437B61FB681B687A699A63FB6805
:104578001B68DB6B7B617B6803F01003072202FA80
:1045880003F3DB437A6913407B61BB68DB68012B6B
:1045980002D10023FB610FE0BB68DB68022B02D16C
:1045A8000123FB6108E0BB689B68002B02D1012353
:1045B800FB6101E00023FB61BB681A68BB689B686C
:1045C8001343FA6913433B617B6803F010033A69AC
:1045D80002FA03F37A6913437B61FB681B687A6903
:1045E800DA63FB681B6819687B6803F010034FF4F3
:1045F800804202FA03F3DA43FB681B680A401A6038
:10460800FB681B681B687B617B6803F0100340F63E
:10461800FE7202FA03F3DB437A6913407B61BB68DD
:104628005B683B617B6803F010033A6902FA03F3A5
:104638007A6913437B61FB681B687A691A60FB68B7
:104648001B6819687B6803F01003C02202FA03F3A1
:10465800DA43FB681B680A401A60FB6801221A717A
:10466800FB6800225A71002318462037BD4680BDDA
:104678000080002080B483B000AF786000BF0C37A2
:10468800BD465DF8047B704780B586B000AF7860A2
:10469800FEF750F938617B68002B01D1012316E33E
:1046A8007B681B68664A93424AD07B681B68654AE8
:1046B800934245D07B681B68634A934240D07B682D
:1046C8001B68624A93423BD07B681B68604A9342EE
:1046D80036D07B681B685F4A934231D07B681B6881
:1046E8005D4A93422CD07B681B685C4A934227D072
:1046F8007B681B685A4A934222D07B681B68594AD8
:1047080093421DD07B681B68574A934218D07B6838
:104718001B68564A934213D07B681B68544A9342DD
:104728000ED07B681B68534A934209D07B681B688C
:10473800514A934204D07B681B68504A934201D186
:10474800012300E00023002B00F03B817B6800225E
:1047580083F834207B68022283F835207B681B6845
:10476800374A93424AD07B681B68364A934245D001
:104778007B681B68344A934240D07B681B68334A85
:1047880093423BD07B681B68314A934236D07B68A2
:104798001B68304A934231D07B681B682E4A93428B
:1047A8002CD07B681B682D4A934227D07B681B68F6
:1047B8002B4A934222D07B681B682A4A93421DD019
:1047C8007B681B68284A934218D07B681B68274A75
:1047D800934213D07B681B68254A93420ED07B68AE
:1047E8001B68244A934209D07B681B68224A93427B
:1047F80004D07B681B68214A934208D17B681B68F8
:104808001A687B681B6822F001021A6007E07B685F
:104818001B681A687B681B6822F001021A602FE087
:10482800FEF788F802463B69D31A052B28D97B681E
:1048380020225A657B68032283F83520012346E24B
:104848001000024028000240400002405800024088
:104858007000024088000240A0000240B8000240F8
:104868001004024028040240400402405804024058
:104878007004024088040240A0040240B8040240C8
:104888007B681B681B6803F00103002BC8D17B6899
:104898001B681B687B617A69834B13407B617B686B
:1048A8009A687B68DB681A437B681B691A437B68D4
:1048B8005B691A437B689B691A437B68DB691A4307
:1048C8007B681B6A13437A6913437B617B685B6A65
:1048D800042B07D17B68DA6A7B681B6B13437A6900
:1048E80013437B61714B1A68714B1340B3F1005F3E
:1048F80028D37B685B68282B03D97B685B682E2BE1
:1049080017D97B685B683E2B03D97B685B68422BB1
:104918000FD97B685B68462B03D97B685B68482B9B
:1049280007D97B685B684E2B05D97B685B68522B7F
:1049380001D8012300E00023002B03D07B6943F456
:1049480080137B617B681B687A691A607B681B68C7
:104958005B697B617B6923F007037B617B685B6A2A
:104968007A6913437B617B685B6A042B17D17B6888
:104978009B6A7A6913437B617B68DB6A002B0ED0E4
:10498800786801F0CFFD0346002B08D07B684022F1
:104998005A657B68012283F83520012397E17B68FB
:1049A8001B687A695A61786801F00AFD0346BB60A2
:1049B8007B68DB6D03F01F033F229A40BB689A6057
:1049C800CDE07B681B683B4A934222D07B681B681A
:1049D800394A93421DD07B681B68384A934218D0E5
:1049E8007B681B68364A934213D07B681B68354A3C
:1049F80093420ED07B681B68334A934209D07B6888
:104A08001B68324A934204D07B681B68304A934241
:104A180001D1012300E00023002B00F097807B6880
:104A28001B68244A934221D07B681B68224A934220
:104A38001CD07B681B68214A934217D07B681B688F
:104A48001F4A934212D07B681B681E4A93420DD0BE
:104A58007B681B681C4A934208D07B681B681B4A0A
:104A6800934203D07B681B68194A934200BF7B6856
:104A7800002283F834207B68022283F835207B6883
:104A88001B681B687B617A69124B13407B617B68EA
:104A98009B68402B20D07B689B68802B02D14FF409
:104AA80080431AE0002318E03F8010FE0010005CED
:104AB8000000FFFF085402581C5402583054025892
:104AC80044540258585402586C540258805402589E
:104AD800945402580F00FEFF10237A68D268D20857
:104AE8001A437B681B69DB081A437B685B69DB0830
:104AF8001A437B689B69DB081A437B68DB69DB0820
:104B08001A437B681B6A1B0913437A6913437B6149
:104B18007B681B687A691A607B681B681A466E4B4B
:104B280013446E4AA2FB03231B099A007B68DA65CB
:104B3800786801F045FC0346FB607B68DB6D03F099
:104B48001F0301229A40FB685A6008E07B684022F4
:104B58005A657B68032283F835200123B7E07B6818
:104B68001B685F4A934272D07B681B685D4A934218
:104B78006DD07B681B685C4A934268D07B681B6871
:104B88005A4A934263D07B681B68594A93425ED065
:104B98007B681B68574A934259D07B681B68564A02
:104BA800934254D07B681B68544A93424FD07B6829
:104BB8001B68534A93424AD07B681B68514A934208
:104BC80045D07B681B68504A934240D07B681B687D
:104BD8004E4A93423BD07B681B684D4A934236D07D
:104BE8007B681B684B4A934231D07B681B684A4AF2
:104BF80093422CD07B681B68484A934227D07B6835
:104C08001B68474A934222D07B681B68454A9342F7
:104C18001DD07B681B68444A934218D07B681B6888
:104C2800424A934213D07B681B68414A93420ED094
:104C38007B681B683F4A934209D07B681B683E4AE1
:104C4800934204D07B681B683C4A934201D10123FC
:104C580000E00023002B32D0786801F0DFFC7B688D
:104C68009B68802B02D17B6800225A607B685A6857
:104C78007B681B6ED2B21A607B685B6E7A68926E34
:104C88005A607B685B68002B10D07B685B68082BD8
:104C98000CD8786801F05CFD7B68DB6E00221A6036
:104CA8007B681B6F7A68526F5A6008E07B68002245
:104CB800DA667B6800221A677B6800225A677B687D
:104CC80000225A657B68012283F8352000231846A4
:104CD8001837BD4680BD00BFF8ABFDA7CDCCCCCC06
:104CE80010000240280002404000024058000240E4
:104CF8007000024088000240A0000240B800024054
:104D080010040240280402404004024058040240B3
:104D18007004024088040240A0040240B804024023
:104D2800085402581C54025830540258445402582B
:104D3800585402586C5402588054025894540258DB
:104D480080B586B000AFF860B9607A603B60002338
:104D5800FB75FB68002B01D1012326E2FB6893F861
:104D68003430012B01D102231FE2FB68012283F8B2
:104D78003420FB6893F83530DBB2012B40F00A820F
:104D8800FB68022283F83520FB6800225A65FB681D
:104D98001B68684A93424AD0FB681B68664A93427C
:104DA80045D0FB681B68654A934240D0FB681B6886
:104DB800634A93423BD0FB681B68624A934236D0F1
:104DC800FB681B68604A934231D0FB681B685F4AE6
:104DD80093422CD0FB681B685D4A934227D0FB683E
:104DE8001B685C4A934222D0FB681B685A4A93426C
:104DF8001DD0FB681B68594A934218D0FB681B6892
:104E0800574A934213D0FB681B68564A93420ED008
:104E1800FB681B68544A934209D0FB681B68534AD5
:104E2800934204D0FB681B68514A934208D1FB683F
:104E38001B681A68FB681B6822F001021A6007E009
:104E4800FB681B681A68FB681B6822F001021A607D
:104E58003B687A68B968F86801F006F9FB681B686E
:104E6800344A93424AD0FB681B68334A934245D080
:104E7800FB681B68314A934240D0FB681B68304A84
:104E880093423BD0FB681B682E4A934236D0FB689E
:104E98001B682D4A934231D0FB681B682B4A93420A
:104EA8002CD0FB681B682A4A934227D0FB681B68F2
:104EB800284A934222D0FB681B68274A93421DD098
:104EC800FB681B68254A934218D0FB681B68244A74
:104ED800934213D0FB681B68224A93420ED0FB68AA
:104EE8001B68214A934209D0FB681B681F4A9342FA
:104EF80004D0FB681B681E4A934201D1012300E0DD
:104F08000023002B36D0FB681B681B6823F01E02A9
:104F1800FB681B6842F016021A60FB681B6C002BCA
:104F28003ED0FB681B681A68FB681B6842F00802E1
:104F38001A6035E01000024028000240400002409C
:104F4800580002407000024088000240A000024061
:104F5800B800024010040240280402404004024005
:104F6800580402407004024088040240A004024031
:104F7800B8040240FB681B681B6823F00E02FB683C
:104F88001B6842F00A021A60FB681B6C002B07D0F2
:104F9800FB681B681A68FB681B6842F004021A6009
:104FA800FB681B68834A934272D0FB681B68824A7D
:104FB80093426DD0FB681B68804A934268D0FB68B7
:104FC8001B687F4A934263D0FB681B687D4A934203
:104FD8005ED0FB681B687C4A934259D0FB681B680B
:104FE8007A4A934254D0FB681B68794A93424FD05F
:104FF800FB681B68774A93424AD0FB681B68764A6D
:10500800934245D0FB681B68744A934240D0FB68C2
:105018001B68734A93423BD0FB681B68714A9342F2
:1050280036D0FB681B68704A934231D0FB681B6816
:105038006E4A93422CD0FB681B686D4A934227D076
:10504800FB681B686B4A934222D0FB681B686A4A5C
:1050580093421DD0FB681B68684A934218D0FB68CE
:105068001B68674A934213D0FB681B68654A9342E2
:105078000ED0FB681B68644A934209D0FB681B6822
:10508800624A934204D0FB681B68614A934201D18B
:10509800012300E00023002B1AD0FB681B6E1B685D
:1050A80003F48033002B07D0FB681B6E1A68FB687B
:1050B8001B6E42F480721A60FB68DB6E002B07D00F
:1050C800FB68DB6E1A68FB68DB6E42F480721A605C
:1050D800FB681B68374A93424AD0FB681B68364A0C
:1050E800934245D0FB681B68344A934240D0FB6822
:1050F8001B68334A93423BD0FB681B68314A934292
:1051080036D0FB681B68304A934231D0FB681B6875
:105118002E4A93422CD0FB681B682D4A934227D015
:10512800FB681B682B4A934222D0FB681B682A4AFB
:1051380093421DD0FB681B68284A934218D0FB682D
:105148001B68274A934213D0FB681B68254A934281
:105158000ED0FB681B68244A934209D0FB681B6881
:10516800224A934204D0FB681B68214A934208D123
:10517800FB681B681A68FB681B6842F001021A602A
:1051880012E0FB681B681A68FB681B6842F00102A2
:105198001A6009E0FB68002283F83420FB684FF4AA
:1051A80000625A650123FB75FB7D18461837BD461A
:1051B80080BD00BF100002402800024040000240AD
:1051C800580002407000024088000240A0000240DF
:1051D800B800024010040240280402404004024083
:1051E800580402407004024088040240A0040240AF
:1051F800B8040240085402581C540258305402584B
:1052080044540258585402586C5402588054025856
:105218009454025880B58AB000AF78600023FB60D0
:10522800674B1B68674AA2FB03239B0A7B627B6868
:105238009B6D3B627B689B6DFB613B6A1B68BB6136
:10524800FB691B687B617B681B685F4A93424AD095
:105258007B681B685D4A934245D07B681B685C4A43
:10526800934240D07B681B685A4A93423BD07B6884
:105278001B68594A934236D07B681B68574A934249
:1052880031D07B681B68564A93422CD07B681B68D8
:10529800544A934227D07B681B68534A934222D0D2
:1052A8007B681B68514A93421DD07B681B68504A33
:1052B800934218D07B681B684E4A934213D07B6890
:1052C8001B684D4A93420ED07B681B684B4A934239
:1052D80009D07B681B684A4A934204D07B681B68E4
:1052E800484A934201D1012300E00023002B00F03B
:1052F8002B847B68DB6D03F01F0308229A40BB698F
:105308001340002B00F0A2807B681B682E4A934252
:105318004AD07B681B682D4A934245D07B681B683E
:105328002B4A934240D07B681B682A4A93423BD061
:105338007B681B68284A934236D07B681B68274ADB
:10534800934231D07B681B68254A93422CD07B68F6
:105358001B68244A934227D07B681B68224A9342E1
:1053680022D07B681B68214A93421DD07B681B684A
:105378001F4A934218D07B681B681E4A934213D079
:105388007B681B681C4A93420ED07B681B681B4ACB
:10539800934209D07B681B68194A934204D07B6802
:1053A8001B68184A93422FD17B681B681B6803F05F
:1053B8000403002B14BF01230023DBB22EE000BF3F
:1053C80004000024B5814E1B100002402800024052
:1053D800400002405800024070000240880002402D
:1053E800A0000240B8000240100402402804024015
:1053F80040040240580402407004024088040240FD
:10540800A0040240B80402407B681B681B6803F0D4
:105418000803002B14BF01230023DBB2002B15D097
:105428007B681B681A687B681B6822F004021A6094
:105438007B68DB6D03F01F0308229A403B6A9A6081
:105448007B685B6D43F001027B685A657B68DB6DA6
:1054580003F01F03BA6922FA03F303F00103002BD8
:105468006ED07B681B68694A93424AD07B681B6888
:10547800674A934245D07B681B68664A934240D08E
:105488007B681B68644A93423BD07B681B68634A0D
:10549800934236D07B681B68614A934231D07B685F
:1054A8001B68604A93422CD07B681B685E4A934213
:1054B80027D07B681B685D4A934222D07B681B68B3
:1054C8005B4A93421DD07B681B685A4A934218D0A6
:1054D8007B681B68584A934213D07B681B68574AFD
:1054E80093420ED07B681B68554A934209D07B686B
:1054F8001B68544A934204D07B681B68524A934203
:105508000AD17B681B685B6903F08003002B14BF1A
:1055180001230023DBB203E07B681B681B680023C0
:10552800002B0DD07B68DB6D03F01F0301229A402E
:105538003B6A9A607B685B6D43F002027B685A6540
:105548007B68DB6D03F01F0304229A40BB6913409C
:10555800002B00F08F807B681B682C4A93424AD04E
:105568007B681B682A4A934245D07B681B68294A96
:10557800934240D07B681B68274A93423BD07B68A4
:105588001B68264A934236D07B681B68244A93429C
:1055980031D07B681B68234A93422CD07B681B68F8
:1055A800214A934227D07B681B68204A934222D025
:1055B8007B681B681E4A93421DD07B681B681D4A86
:1055C800934218D07B681B681B4A934213D07B68B0
:1055D8001B681A4A93420ED07B681B68184A93428C
:1055E80009D07B681B68174A934204D07B681B6804
:1055F800154A93422AD17B681B681B6803F0020393
:10560800002B14BF01230023DBB223E0100002406B
:10561800280002404000024058000240700002404A
:1056280088000240A0000240B80002401004024076
:10563800280402404004024058040240700402401A
:1056480088040240A0040240B80402407B681B683A
:105658001B680023002B0DD07B68DB6D03F01F0354
:1056680004229A403B6A9A607B685B6D43F00402AF
:105678007B685A657B68DB6D03F01F0310229A4034
:10568800BB691340002B00F0A6807B681B68854A25
:1056980093424AD07B681B68834A934245D07B6813
:1056A8001B68824A934240D07B681B68804A9342B9
:1056B8003BD07B681B687F4A934236D07B681B6867
:1056C8007D4A934231D07B681B687C4A93422CD038
:1056D8007B681B687A4A934227D07B681B68794AA3
:1056E800934222D07B681B68774A93421DD07B681F
:1056F8001B68764A934218D07B681B68744A9342A9
:1057080013D07B681B68734A93420ED07B681B6872
:10571800714A934209D07B681B68704A934204D04F
:105728007B681B686E4A93420AD17B681B681B68BA
:1057380003F00803002B14BF01230023DBB209E0A8
:105748007B681B681B6803F00403002B14BF01234C
:105758000023DBB2002B3ED07B68DB6D03F01F0318
:1057680010229A403B6A9A607B681B681B6803F4A6
:105778008023002B18D07B681B681B6803F4002368
:10578800002B08D17B681B6C002B24D07B681B6C1A
:10579800786898471FE07B689B6C002B1BD07B6860
:1057A8009B6C7868984716E07B681B681B6803F455
:1057B8008073002B07D17B681B681A687B681B689D
:1057C80022F008021A607B681B6C002B03D07B68F0
:1057D8001B6C786898477B68DB6D03F01F032022F9
:1057E8009A40BB691340002B00F010817B681B684E
:1057F8002C4A93424AD07B681B682B4A934245D077
:105808007B681B68294A934240D07B681B68284AFA
:1058180093423BD07B681B68264A934236D07B680C
:105828001B68254A934231D07B681B68234A934200
:105838002CD07B681B68224A934227D07B681B6860
:10584800204A934222D07B681B681F4A93421DD08E
:105858007B681B681D4A934218D07B681B681C4AEA
:10586800934213D07B681B681A4A93420ED07B6818
:105878001B68194A934209D07B681B68174A9342F0
:1058880004D07B681B68164A93422BD17B681B683F
:105898001B6803F01003002B14BF01230023DBB2A5
:1058A8002AE000BF100002402800024040000240E9
:1058B800580002407000024088000240A0000240E8
:1058C800B80002401004024028040240400402408C
:1058D800580402407004024088040240A0040240B8
:1058E800B80402407B681B681B6803F00203002BA6
:1058F80014BF01230023DBB2002B00F087807B68F4
:10590800DB6D03F01F0320229A403B6A9A607B6894
:1059180093F83530DBB2042B39D17B681B681A68E1
:105928007B681B6822F016021A607B681B685A693C
:105938007B681B6822F080025A617B681B6C002B15
:1059480003D17B689B6C002B07D07B681B681A68A7
:105958007B681B6822F008021A607B68DB6D03F025
:105968001F033F229A403B6A9A607B68002283F8B3
:1059780034207B68012283F835207B681B6D002B5F
:1059880000F04A837B681B6D7868984744E37B681E
:105998001B681B6803F48023002B18D07B681B68E6
:1059A8001B6803F40023002B08D17B685B6C002B79
:1059B8002CD07B685B6C7868984727E07B68DB6B4A
:1059C800002B23D07B68DB6B786898471EE07B68E8
:1059D8001B681B6803F48073002B0FD17B681B685E
:1059E8001A687B681B6822F010021A607B68002224
:1059F80083F834207B68012283F835207B68DB6BD1
:105A0800002B03D07B68DB6B786898477B685B6DFD
:105A1800002B00F006837B685B6D03F00103002B0D
:105A280000F088807B68042283F835207B681B6837
:105A38007A4A93424AD07B681B68794A934245D098
:105A48007B681B68774A934240D07B681B68764A1C
:105A580093423BD07B681B68744A934236D07B687C
:105A68001B68734A934231D07B681B68714A934222
:105A78002CD07B681B68704A934227D07B681B68D0
:105A88006E4A934222D07B681B686D4A93421DD0B0
:105A98007B681B686B4A934218D07B681B686A4A0C
:105AA800934213D07B681B68684A93420ED07B6888
:105AB8001B68674A934209D07B681B68654A934212
:105AC80004D07B681B68644A934208D17B681B68D2
